{
  "contractName": "DNextTokenSale",
  "abi": [
    {
      "constant": true,
      "inputs": [],
      "name": "emmasRaised",
      "outputs": [
        {
          "name": "",
          "type": "uint256"
        }
      ],
      "payable": false,
      "stateMutability": "view",
      "type": "function"
    },
    {
      "constant": true,
      "inputs": [],
      "name": "HARD_CAP",
      "outputs": [
        {
          "name": "",
          "type": "uint256"
        }
      ],
      "payable": false,
      "stateMutability": "view",
      "type": "function"
    },
    {
      "constant": true,
      "inputs": [],
      "name": "whitelist",
      "outputs": [
        {
          "name": "",
          "type": "address"
        }
      ],
      "payable": false,
      "stateMutability": "view",
      "type": "function"
    },
    {
      "constant": true,
      "inputs": [],
      "name": "EMMAS_PER_WEI",
      "outputs": [
        {
          "name": "",
          "type": "uint256"
        }
      ],
      "payable": false,
      "stateMutability": "view",
      "type": "function"
    },
    {
      "constant": true,
      "inputs": [],
      "name": "token",
      "outputs": [
        {
          "name": "",
          "type": "address"
        }
      ],
      "payable": false,
      "stateMutability": "view",
      "type": "function"
    },
    {
      "inputs": [
        {
          "name": "_token",
          "type": "address"
        },
        {
          "name": "_whitelist",
          "type": "address"
        }
      ],
      "payable": false,
      "stateMutability": "nonpayable",
      "type": "constructor"
    },
    {
      "payable": true,
      "stateMutability": "payable",
      "type": "fallback"
    }
  ],
  "bytecode": "0x608060405234801561001057600080fd5b506040516040806106b58339810180604052810190808051906020019092919080519060200190929190505050600073ffffffffffffffffffffffffffffffffffffffff168273ffffffffffffffffffffffffffffffffffffffff161415151561007957600080fd5b816000806101000a81548173ffffffffffffffffffffffffffffffffffffffff021916908373ffffffffffffffffffffffffffffffffffffffff16021790555080600160006101000a81548173ffffffffffffffffffffffffffffffffffffffff021916908373ffffffffffffffffffffffffffffffffffffffff16021790555050506105aa8061010b6000396000f30060806040526004361061006d576000357c0100000000000000000000000000000000000000000000000000000000900463ffffffff1680633266b9b2146103825780633a03171c146103ad57806393e59dc1146103d8578063c43c69091461042f578063fc0c546a1461045a575b600080600360009054906101000a900460ff1615151561008c57600080fd5b6000341415151561009c57600080fd5b600160009054906101000a900473ffffffffffffffffffffffffffffffffffffffff1673ffffffffffffffffffffffffffffffffffffffff1663c3c5a547336040518263ffffffff167c0100000000000000000000000000000000000000000000000000000000028152600401808273ffffffffffffffffffffffffffffffffffffffff1673ffffffffffffffffffffffffffffffffffffffff168152602001915050602060405180830381600087803b15801561015957600080fd5b505af115801561016d573d6000803e3d6000fd5b505050506040513d602081101561018357600080fd5b8101908080519060200190929190505050151561019f57600080fd5b6101b562989680346104b190919063ffffffff16565b9150600090506601c6bf5263400082600254011115610212576002546601c6bf526340000391506101f262989680836104e990919063ffffffff16565b340390506001600360006101000a81548160ff0219169083151502179055505b610227826002546104ff90919063ffffffff16565b600281905550600081111561027e573373ffffffffffffffffffffffffffffffffffffffff166108fc829081150290604051600060405180830381858888f1935050505015801561027c573d6000803e3d6000fd5b505b6000809054906101000a900473ffffffffffffffffffffffffffffffffffffffff1673ffffffffffffffffffffffffffffffffffffffff1663a9059cbb33846040518363ffffffff167c0100000000000000000000000000000000000000000000000000000000028152600401808373ffffffffffffffffffffffffffffffffffffffff1673ffffffffffffffffffffffffffffffffffffffff16815260200182815260200192505050602060405180830381600087803b15801561034257600080fd5b505af1158015610356573d6000803e3d6000fd5b505050506040513d602081101561036c57600080fd5b8101908080519060200190929190505050505050005b34801561038e57600080fd5b5061039761051b565b6040518082815260200191505060405180910390f35b3480156103b957600080fd5b506103c2610521565b6040518082815260200191505060405180910390f35b3480156103e457600080fd5b506103ed61052c565b604051808273ffffffffffffffffffffffffffffffffffffffff1673ffffffffffffffffffffffffffffffffffffffff16815260200191505060405180910390f35b34801561043b57600080fd5b50610444610552565b6040518082815260200191505060405180910390f35b34801561046657600080fd5b5061046f610559565b604051808273ffffffffffffffffffffffffffffffffffffffff1673ffffffffffffffffffffffffffffffffffffffff16815260200191505060405180910390f35b6000808314156104c457600090506104e3565b81830290508183828115156104d557fe5b041415156104df57fe5b8090505b92915050565b600081838115156104f657fe5b04905092915050565b6000818301905082811015151561051257fe5b80905092915050565b60025481565b6601c6bf5263400081565b600160009054906101000a900473ffffffffffffffffffffffffffffffffffffffff1681565b6298968081565b6000809054906101000a900473ffffffffffffffffffffffffffffffffffffffff16815600a165627a7a7230582055150f8632c17aeb32e54ecc03b9fe2d38cb154b631f57d8aeb163524a3167110029",
  "source": "pragma solidity ^0.4.21;\r\n\r\nimport \"./DNextToken.sol\";\r\nimport \"./DNextTokenWhitelist.sol\";\r\nimport \"../node_modules/zeppelin-solidity/contracts/math/SafeMath.sol\";\r\ncontract DNextTokenSale {\r\n    using SafeMath for uint256;\r\n    //안전하게 수학 연산 가능 SafeMath mul() div() sub() add() * / + -\r\n    uint public constant EMMAS_PER_WEI = 10000000;      //1wei당 교환해줄 Emma\r\n    uint public constant HARD_CAP = 500000000000000;    //최대 판매 수량\r\n    DNextToken public token;        //우리가 만든 토큰을 참조\r\n    DNextTokenWhitelist public whitelist;   \r\n    uint public emmasRaised;    //크라우드 세일 과정에서 판매된 전체 Emma의 수\r\n    bool private closed;        //크라우드 세일이 종료되었는지 여부\r\n\r\n    function DNextTokenSale(DNextToken _token, DNextTokenWhitelist _whitelist) public {\r\n        require(_token != address(0));\r\n        token = _token;\r\n        whitelist = _whitelist;\r\n    }\r\n\r\n    function() external payable {\r\n        require(!closed);\r\n        require(msg.value != 0);\r\n        //토큰 구매를 원하는 계정의 주소가 사전 등록 목록에 포함되어있는지 확인한다.\r\n        require(whitelist.isRegistered(msg.sender));\r\n\r\n        uint emmasToTransfer = msg.value.mul(EMMAS_PER_WEI);\r\n        uint weisToRefund = 0;\r\n        if( emmasRaised + emmasToTransfer > HARD_CAP) {\r\n            emmasToTransfer = HARD_CAP - emmasRaised;\r\n            weisToRefund = msg.value - emmasToTransfer.div(EMMAS_PER_WEI);\r\n            closed = true;\r\n        }\r\n        emmasRaised = emmasRaised.add(emmasToTransfer);\r\n        if (weisToRefund > 0) {\r\n            msg.sender.transfer(weisToRefund);\r\n        }\r\n        token.transfer(msg.sender, emmasToTransfer);\r\n    }\r\n\r\n}",
  "sourcePath": "C:\\Users\\user10\\dnx2\\contracts\\DNextTokenSale.sol",
  "compiler": {
    "name": "solc",
    "version": "0.4.23+commit.124ca40d.Emscripten.clang"
  },
  "schemaVersion": "2.0.0",
  "updatedAt": "2018-05-16T09:19:21.056Z"
}