{
  "contractName": "DNextTokenWhitelist",
  "abi": [
    {
      "constant": false,
      "inputs": [],
      "name": "register",
      "outputs": [],
      "payable": false,
      "stateMutability": "nonpayable",
      "type": "function"
    },
    {
      "constant": false,
      "inputs": [],
      "name": "unregister",
      "outputs": [],
      "payable": false,
      "stateMutability": "nonpayable",
      "type": "function"
    },
    {
      "constant": true,
      "inputs": [
        {
          "name": "anaddress",
          "type": "address"
        }
      ],
      "name": "isRegistered",
      "outputs": [
        {
          "name": "registered",
          "type": "bool"
        }
      ],
      "payable": false,
      "stateMutability": "view",
      "type": "function"
    }
  ],
  "bytecode": "0x608060405234801561001057600080fd5b5061029e806100206000396000f300608060405260043610610057576000357c0100000000000000000000000000000000000000000000000000000000900463ffffffff1680631aa3a0081461005c578063c3c5a54714610073578063e79a198f146100ce575b600080fd5b34801561006857600080fd5b506100716100e5565b005b34801561007f57600080fd5b506100b4600480360381019080803573ffffffffffffffffffffffffffffffffffffffff16906020019092919050505061016a565b604051808215151515815260200191505060405180910390f35b3480156100da57600080fd5b506100e36101ec565b005b600180600033604051808273ffffffffffffffffffffffffffffffffffffffff1673ffffffffffffffffffffffffffffffffffffffff166c0100000000000000000000000002815260140191505060405180910390206000191660001916815260200190815260200160002060006101000a81548160ff021916908315150217905550565b60006001600083604051808273ffffffffffffffffffffffffffffffffffffffff1673ffffffffffffffffffffffffffffffffffffffff166c0100000000000000000000000002815260140191505060405180910390206000191660001916815260200190815260200160002060009054906101000a900460ff169050919050565b60006001600033604051808273ffffffffffffffffffffffffffffffffffffffff1673ffffffffffffffffffffffffffffffffffffffff166c0100000000000000000000000002815260140191505060405180910390206000191660001916815260200190815260200160002060006101000a81548160ff0219169083151502179055505600a165627a7a723058209464b02b99c478647d614ba1641aa0697dfde3084dfd749789d98ff39eb4016d0029",
  "source": "pragma solidity ^0.4.21;\r\n\r\ncontract DNextTokenWhitelist { \r\n\r\n    address owner;\r\n    mapping(bytes32 => bool) whitelist;\r\n\r\n    //external : 외부 계정만 실행 가능 \r\n    function register() external {\r\n        whitelist[keccak256(msg.sender)] = true;\r\n    }\r\n\r\n    function unregister() external {\r\n        whitelist[keccak256(msg.sender)] = false;\r\n    }\r\n\r\n    //view는 상태 변경을 하지 않겠다. (변수 변경, 이벤트 발생, 다른 계약 생성)\r\n    function isRegistered(address anaddress) public view returns (bool registered) { \r\n        return whitelist[keccak256 (anaddress)];\r\n    }\r\n\r\n\r\n}",
  "sourcePath": "C:\\Users\\user10\\dnx2\\contracts\\DNextTokenWhitelist.sol",
  "compiler": {
    "name": "solc",
    "version": "0.4.23+commit.124ca40d.Emscripten.clang"
  },
  "schemaVersion": "2.0.0",
  "updatedAt": "2018-05-16T09:19:21.051Z"
}